{
  "_format": "hh-sol-artifact-1",
  "contractName": "Domains",
  "sourceName": "contracts/Domains.sol",
  "abi": [
    {
      "inputs": [
        {
          "internalType": "string",
          "name": "_tld",
          "type": "string"
        }
      ],
      "stateMutability": "payable",
      "type": "constructor"
    },
    {
      "inputs": [],
      "name": "AlreadyRegistered",
      "type": "error"
    },
    {
      "inputs": [
        {
          "internalType": "string",
          "name": "name",
          "type": "string"
        }
      ],
      "name": "InvalidName",
      "type": "error"
    },
    {
      "inputs": [],
      "name": "Unauthorized",
      "type": "error"
    },
    {
      "anonymous": false,
      "inputs": [
        {
          "indexed": true,
          "internalType": "address",
          "name": "owner",
          "type": "address"
        },
        {
          "indexed": true,
          "internalType": "address",
          "name": "approved",
          "type": "address"
        },
        {
          "indexed": true,
          "internalType": "uint256",
          "name": "tokenId",
          "type": "uint256"
        }
      ],
      "name": "Approval",
      "type": "event"
    },
    {
      "anonymous": false,
      "inputs": [
        {
          "indexed": true,
          "internalType": "address",
          "name": "owner",
          "type": "address"
        },
        {
          "indexed": true,
          "internalType": "address",
          "name": "operator",
          "type": "address"
        },
        {
          "indexed": false,
          "internalType": "bool",
          "name": "approved",
          "type": "bool"
        }
      ],
      "name": "ApprovalForAll",
      "type": "event"
    },
    {
      "anonymous": false,
      "inputs": [
        {
          "indexed": true,
          "internalType": "address",
          "name": "from",
          "type": "address"
        },
        {
          "indexed": true,
          "internalType": "address",
          "name": "to",
          "type": "address"
        },
        {
          "indexed": true,
          "internalType": "uint256",
          "name": "tokenId",
          "type": "uint256"
        }
      ],
      "name": "Transfer",
      "type": "event"
    },
    {
      "inputs": [
        {
          "internalType": "address",
          "name": "to",
          "type": "address"
        },
        {
          "internalType": "uint256",
          "name": "tokenId",
          "type": "uint256"
        }
      ],
      "name": "approve",
      "outputs": [],
      "stateMutability": "nonpayable",
      "type": "function"
    },
    {
      "inputs": [
        {
          "internalType": "address",
          "name": "owner",
          "type": "address"
        }
      ],
      "name": "balanceOf",
      "outputs": [
        {
          "internalType": "uint256",
          "name": "",
          "type": "uint256"
        }
      ],
      "stateMutability": "view",
      "type": "function"
    },
    {
      "inputs": [
        {
          "internalType": "uint256",
          "name": "",
          "type": "uint256"
        }
      ],
      "name": "domainNames",
      "outputs": [
        {
          "internalType": "string",
          "name": "",
          "type": "string"
        }
      ],
      "stateMutability": "view",
      "type": "function"
    },
    {
      "inputs": [
        {
          "internalType": "string",
          "name": "",
          "type": "string"
        }
      ],
      "name": "domains",
      "outputs": [
        {
          "internalType": "address",
          "name": "",
          "type": "address"
        }
      ],
      "stateMutability": "view",
      "type": "function"
    },
    {
      "inputs": [
        {
          "internalType": "string",
          "name": "",
          "type": "string"
        }
      ],
      "name": "favouriteFood",
      "outputs": [
        {
          "internalType": "string",
          "name": "",
          "type": "string"
        }
      ],
      "stateMutability": "view",
      "type": "function"
    },
    {
      "inputs": [
        {
          "internalType": "string",
          "name": "name",
          "type": "string"
        }
      ],
      "name": "getAddress",
      "outputs": [
        {
          "internalType": "address",
          "name": "",
          "type": "address"
        }
      ],
      "stateMutability": "view",
      "type": "function"
    },
    {
      "inputs": [],
      "name": "getAllNames",
      "outputs": [
        {
          "internalType": "string[]",
          "name": "",
          "type": "string[]"
        }
      ],
      "stateMutability": "view",
      "type": "function"
    },
    {
      "inputs": [
        {
          "internalType": "uint256",
          "name": "tokenId",
          "type": "uint256"
        }
      ],
      "name": "getApproved",
      "outputs": [
        {
          "internalType": "address",
          "name": "",
          "type": "address"
        }
      ],
      "stateMutability": "view",
      "type": "function"
    },
    {
      "inputs": [
        {
          "internalType": "string",
          "name": "name",
          "type": "string"
        }
      ],
      "name": "getFavouriteFood",
      "outputs": [
        {
          "internalType": "string",
          "name": "",
          "type": "string"
        }
      ],
      "stateMutability": "view",
      "type": "function"
    },
    {
      "inputs": [
        {
          "internalType": "address",
          "name": "owner",
          "type": "address"
        },
        {
          "internalType": "address",
          "name": "operator",
          "type": "address"
        }
      ],
      "name": "isApprovedForAll",
      "outputs": [
        {
          "internalType": "bool",
          "name": "",
          "type": "bool"
        }
      ],
      "stateMutability": "view",
      "type": "function"
    },
    {
      "inputs": [],
      "name": "isOwner",
      "outputs": [
        {
          "internalType": "bool",
          "name": "",
          "type": "bool"
        }
      ],
      "stateMutability": "view",
      "type": "function"
    },
    {
      "inputs": [],
      "name": "name",
      "outputs": [
        {
          "internalType": "string",
          "name": "",
          "type": "string"
        }
      ],
      "stateMutability": "view",
      "type": "function"
    },
    {
      "inputs": [],
      "name": "owner",
      "outputs": [
        {
          "internalType": "address payable",
          "name": "",
          "type": "address"
        }
      ],
      "stateMutability": "view",
      "type": "function"
    },
    {
      "inputs": [
        {
          "internalType": "uint256",
          "name": "tokenId",
          "type": "uint256"
        }
      ],
      "name": "ownerOf",
      "outputs": [
        {
          "internalType": "address",
          "name": "",
          "type": "address"
        }
      ],
      "stateMutability": "view",
      "type": "function"
    },
    {
      "inputs": [
        {
          "internalType": "string",
          "name": "name",
          "type": "string"
        }
      ],
      "name": "price",
      "outputs": [
        {
          "internalType": "uint256",
          "name": "",
          "type": "uint256"
        }
      ],
      "stateMutability": "pure",
      "type": "function"
    },
    {
      "inputs": [
        {
          "internalType": "string",
          "name": "name",
          "type": "string"
        }
      ],
      "name": "register",
      "outputs": [],
      "stateMutability": "payable",
      "type": "function"
    },
    {
      "inputs": [
        {
          "internalType": "address",
          "name": "from",
          "type": "address"
        },
        {
          "internalType": "address",
          "name": "to",
          "type": "address"
        },
        {
          "internalType": "uint256",
          "name": "tokenId",
          "type": "uint256"
        }
      ],
      "name": "safeTransferFrom",
      "outputs": [],
      "stateMutability": "nonpayable",
      "type": "function"
    },
    {
      "inputs": [
        {
          "internalType": "address",
          "name": "from",
          "type": "address"
        },
        {
          "internalType": "address",
          "name": "to",
          "type": "address"
        },
        {
          "internalType": "uint256",
          "name": "tokenId",
          "type": "uint256"
        },
        {
          "internalType": "bytes",
          "name": "_data",
          "type": "bytes"
        }
      ],
      "name": "safeTransferFrom",
      "outputs": [],
      "stateMutability": "nonpayable",
      "type": "function"
    },
    {
      "inputs": [
        {
          "internalType": "address",
          "name": "operator",
          "type": "address"
        },
        {
          "internalType": "bool",
          "name": "approved",
          "type": "bool"
        }
      ],
      "name": "setApprovalForAll",
      "outputs": [],
      "stateMutability": "nonpayable",
      "type": "function"
    },
    {
      "inputs": [
        {
          "internalType": "string",
          "name": "name",
          "type": "string"
        },
        {
          "internalType": "string",
          "name": "food",
          "type": "string"
        }
      ],
      "name": "setFavouriteFood",
      "outputs": [],
      "stateMutability": "nonpayable",
      "type": "function"
    },
    {
      "inputs": [
        {
          "internalType": "bytes4",
          "name": "interfaceId",
          "type": "bytes4"
        }
      ],
      "name": "supportsInterface",
      "outputs": [
        {
          "internalType": "bool",
          "name": "",
          "type": "bool"
        }
      ],
      "stateMutability": "view",
      "type": "function"
    },
    {
      "inputs": [],
      "name": "symbol",
      "outputs": [
        {
          "internalType": "string",
          "name": "",
          "type": "string"
        }
      ],
      "stateMutability": "view",
      "type": "function"
    },
    {
      "inputs": [
        {
          "internalType": "uint256",
          "name": "tokenId",
          "type": "uint256"
        }
      ],
      "name": "tokenURI",
      "outputs": [
        {
          "internalType": "string",
          "name": "",
          "type": "string"
        }
      ],
      "stateMutability": "view",
      "type": "function"
    },
    {
      "inputs": [],
      "name": "topLevelDomain",
      "outputs": [
        {
          "internalType": "string",
          "name": "",
          "type": "string"
        }
      ],
      "stateMutability": "view",
      "type": "function"
    },
    {
      "inputs": [
        {
          "internalType": "address",
          "name": "from",
          "type": "address"
        },
        {
          "internalType": "address",
          "name": "to",
          "type": "address"
        },
        {
          "internalType": "uint256",
          "name": "tokenId",
          "type": "uint256"
        }
      ],
      "name": "transferFrom",
      "outputs": [],
      "stateMutability": "nonpayable",
      "type": "function"
    },
    {
      "inputs": [
        {
          "internalType": "string",
          "name": "name",
          "type": "string"
        }
      ],
      "name": "valid",
      "outputs": [
        {
          "internalType": "bool",
          "name": "",
          "type": "bool"
        }
      ],
      "stateMutability": "pure",
      "type": "function"
    },
    {
      "inputs": [],
      "name": "withdraw",
      "outputs": [],
      "stateMutability": "nonpayable",
      "type": "function"
    }
  ],
  "bytecode": "0x6080604052604051806108a0016040528061086b8152602001620052da61086b9139600a908051906020019062000038929190620002c8565b506040518060400160405280600d81526020017f3c2f746578743e3c2f7376673e00000000000000000000000000000000000000815250600b908051906020019062000086929190620002c8565b5060405162005b4538038062005b458339818101604052810190620000ac919062000515565b6040518060400160405280601581526020017f4c696f6e43697479204e616d65205365727669636500000000000000000000008152506040518060400160405280600481526020017f4c434e5300000000000000000000000000000000000000000000000000000000815250816000908051906020019062000130929190620002c8565b50806001908051906020019062000149929190620002c8565b505050806008908051906020019062000164929190620002c8565b5033600960006101000a81548173ffffffffffffffffffffffffffffffffffffffff021916908373ffffffffffffffffffffffffffffffffffffffff160217905550620001f26040518060400160405280601d81526020017f27257327206e616d652073657276696365206973206e6f77206c69766500000081525082620001f960201b62001b7c1760201c565b5062000663565b6200029b828260405160240162000212929190620005c3565b6040516020818303038152906040527f4b5c4277000000000000000000000000000000000000000000000000000000007bffffffffffffffffffffffffffffffffffffffffffffffffffffffff19166020820180517bffffffffffffffffffffffffffffffffffffffffffffffffffffffff83818316178352505050506200029f60201b60201c565b5050565b60008151905060006a636f6e736f6c652e6c6f679050602083016000808483855afa5050505050565b828054620002d6906200062d565b90600052602060002090601f016020900481019282620002fa576000855562000346565b82601f106200031557805160ff191683800117855562000346565b8280016001018555821562000346579182015b828111156200034557825182559160200191906001019062000328565b5b50905062000355919062000359565b5090565b5b80821115620003745760008160009055506001016200035a565b5090565b6000604051905090565b600080fd5b600080fd5b600080fd5b600080fd5b6000601f19601f8301169050919050565b7f4e487b7100000000000000000000000000000000000000000000000000000000600052604160045260246000fd5b620003e18262000396565b810181811067ffffffffffffffff82111715620004035762000402620003a7565b5b80604052505050565b60006200041862000378565b9050620004268282620003d6565b919050565b600067ffffffffffffffff821115620004495762000448620003a7565b5b620004548262000396565b9050602081019050919050565b60005b838110156200048157808201518184015260208101905062000464565b8381111562000491576000848401525b50505050565b6000620004ae620004a8846200042b565b6200040c565b905082815260208101848484011115620004cd57620004cc62000391565b5b620004da84828562000461565b509392505050565b600082601f830112620004fa57620004f96200038c565b5b81516200050c84826020860162000497565b91505092915050565b6000602082840312156200052e576200052d62000382565b5b600082015167ffffffffffffffff8111156200054f576200054e62000387565b5b6200055d84828501620004e2565b91505092915050565b600081519050919050565b600082825260208201905092915050565b60006200058f8262000566565b6200059b818562000571565b9350620005ad81856020860162000461565b620005b88162000396565b840191505092915050565b60006040820190508181036000830152620005df818562000582565b90508181036020830152620005f5818462000582565b90509392505050565b7f4e487b7100000000000000000000000000000000000000000000000000000000600052602260045260246000fd5b600060028204905060018216806200064657607f821691505b602082108114156200065d576200065c620005fe565b5b50919050565b614c6780620006736000396000f3fe60806040526004361061019c5760003560e01c80637d3919ed116100ec578063bf40fac11161008a578063e985e9c511610064578063e985e9c514610624578063f2c298be14610661578063fb825e5f1461067d578063fe2c6198146106a85761019c565b8063bf40fac11461056d578063c87b56dd146105aa578063e912a599146105e75761019c565b806395d89b41116100c657806395d89b41146104b35780639791c097146104de578063a22cb4651461051b578063b88d4fde146105445761019c565b80637d3919ed146104205780638da5cb5b1461045d5780638f32d59b146104885761019c565b8063352c0eb11161015957806352f217431161013357806352f217431461033e5780636352211e14610369578063636921cf146103a657806370a08231146103e35761019c565b8063352c0eb1146102d55780633ccfd60b146102fe57806342842e0e146103155761019c565b806301ffc9a7146101a157806306fdde03146101de578063081812fc14610209578063095ea7b31461024657806323b872dd1461026f5780632644923514610298575b600080fd5b3480156101ad57600080fd5b506101c860048036038101906101c3919061305e565b6106e5565b6040516101d591906130a6565b60405180910390f35b3480156101ea57600080fd5b506101f36107c7565b604051610200919061315a565b60405180910390f35b34801561021557600080fd5b50610230600480360381019061022b91906131b2565b610859565b60405161023d9190613220565b60405180910390f35b34801561025257600080fd5b5061026d60048036038101906102689190613267565b6108de565b005b34801561027b57600080fd5b50610296600480360381019061029191906132a7565b6109f6565b005b3480156102a457600080fd5b506102bf60048036038101906102ba919061342f565b610a56565b6040516102cc9190613220565b60405180910390f35b3480156102e157600080fd5b506102fc60048036038101906102f791906134d8565b610a9f565b005b34801561030a57600080fd5b50610313610b7a565b005b34801561032157600080fd5b5061033c600480360381019061033791906132a7565b610c40565b005b34801561034a57600080fd5b50610353610c60565b604051610360919061315a565b60405180910390f35b34801561037557600080fd5b50610390600480360381019061038b91906131b2565b610cee565b60405161039d9190613220565b60405180910390f35b3480156103b257600080fd5b506103cd60048036038101906103c891906131b2565b610da0565b6040516103da919061315a565b60405180910390f35b3480156103ef57600080fd5b5061040a60048036038101906104059190613559565b610e40565b6040516104179190613595565b60405180910390f35b34801561042c57600080fd5b50610447600480360381019061044291906135b0565b610ef8565b604051610454919061315a565b60405180910390f35b34801561046957600080fd5b50610472610fab565b60405161047f919061361e565b60405180910390f35b34801561049457600080fd5b5061049d610fd1565b6040516104aa91906130a6565b60405180910390f35b3480156104bf57600080fd5b506104c8611029565b6040516104d5919061315a565b60405180910390f35b3480156104ea57600080fd5b50610505600480360381019061050091906135b0565b6110bb565b60405161051291906130a6565b60405180910390f35b34801561052757600080fd5b50610542600480360381019061053d9190613665565b61116f565b005b34801561055057600080fd5b5061056b60048036038101906105669190613746565b611185565b005b34801561057957600080fd5b50610594600480360381019061058f91906135b0565b6111e7565b6040516105a19190613220565b60405180910390f35b3480156105b657600080fd5b506105d160048036038101906105cc91906131b2565b611232565b6040516105de919061315a565b60405180910390f35b3480156105f357600080fd5b5061060e6004803603810190610609919061342f565b611384565b60405161061b919061315a565b60405180910390f35b34801561063057600080fd5b5061064b600480360381019061064691906137c9565b61143a565b60405161065891906130a6565b60405180910390f35b61067b600480360381019061067691906135b0565b6114ce565b005b34801561068957600080fd5b506106926118fb565b60405161069f9190613915565b60405180910390f35b3480156106b457600080fd5b506106cf60048036038101906106ca91906135b0565b611ad9565b6040516106dc9190613595565b60405180910390f35b60007f80ac58cd000000000000000000000000000000000000000000000000000000007bffffffffffffffffffffffffffffffffffffffffffffffffffffffff1916827bffffffffffffffffffffffffffffffffffffffffffffffffffffffff191614806107b057507f5b5e139f000000000000000000000000000000000000000000000000000000007bffffffffffffffffffffffffffffffffffffffffffffffffffffffff1916827bffffffffffffffffffffffffffffffffffffffffffffffffffffffff1916145b806107c057506107bf82611c18565b5b9050919050565b6060600080546107d690613966565b80601f016020809104026020016040519081016040528092919081815260200182805461080290613966565b801561084f5780601f106108245761010080835404028352916020019161084f565b820191906000526020600020905b81548152906001019060200180831161083257829003601f168201915b5050505050905090565b600061086482611c82565b6108a3576040517f08c379a000000000000000000000000000000000000000000000000000000000815260040161089a90613a0a565b60405180910390fd5b6004600083815260200190815260200160002060009054906101000a900473ffffffffffffffffffffffffffffffffffffffff169050919050565b60006108e982610cee565b90508073ffffffffffffffffffffffffffffffffffffffff168373ffffffffffffffffffffffffffffffffffffffff16141561095a576040517f08c379a000000000000000000000000000000000000000000000000000000000815260040161095190613a9c565b60405180910390fd5b8073ffffffffffffffffffffffffffffffffffffffff16610979611cee565b73ffffffffffffffffffffffffffffffffffffffff1614806109a857506109a7816109a2611cee565b61143a565b5b6109e7576040517f08c379a00000000000000000000000000000000000000000000000000000000081526004016109de90613b2e565b60405180910390fd5b6109f18383611cf6565b505050565b610a07610a01611cee565b82611daf565b610a46576040517f08c379a0000000000000000000000000000000000000000000000000000000008152600401610a3d90613bc0565b60405180910390fd5b610a51838383611e8d565b505050565b600c818051602081018201805184825260208301602085012081835280955050505050506000915054906101000a900473ffffffffffffffffffffffffffffffffffffffff1681565b600c8484604051610ab1929190613c10565b908152602001604051809103902060009054906101000a900473ffffffffffffffffffffffffffffffffffffffff1673ffffffffffffffffffffffffffffffffffffffff163373ffffffffffffffffffffffffffffffffffffffff1614610b44576040517f82b4290000000000000000000000000000000000000000000000000000000000815260040160405180910390fd5b8181600d8686604051610b58929190613c10565b90815260200160405180910390209190610b73929190612ec9565b5050505050565b610b82610fd1565b610b8b57600080fd5b600047905060003373ffffffffffffffffffffffffffffffffffffffff1682604051610bb690613c5a565b60006040518083038185875af1925050503d8060008114610bf3576040519150601f19603f3d011682016040523d82523d6000602084013e610bf8565b606091505b5050905080610c3c576040517f08c379a0000000000000000000000000000000000000000000000000000000008152600401610c3390613ce1565b60405180910390fd5b5050565b610c5b83838360405180602001604052806000815250611185565b505050565b60088054610c6d90613966565b80601f0160208091040260200160405190810160405280929190818152602001828054610c9990613966565b8015610ce65780601f10610cbb57610100808354040283529160200191610ce6565b820191906000526020600020905b815481529060010190602001808311610cc957829003601f168201915b505050505081565b6000806002600084815260200190815260200160002060009054906101000a900473ffffffffffffffffffffffffffffffffffffffff169050600073ffffffffffffffffffffffffffffffffffffffff168173ffffffffffffffffffffffffffffffffffffffff161415610d97576040517f08c379a0000000000000000000000000000000000000000000000000000000008152600401610d8e90613d73565b60405180910390fd5b80915050919050565b600e6020528060005260406000206000915090508054610dbf90613966565b80601f0160208091040260200160405190810160405280929190818152602001828054610deb90613966565b8015610e385780601f10610e0d57610100808354040283529160200191610e38565b820191906000526020600020905b815481529060010190602001808311610e1b57829003601f168201915b505050505081565b60008073ffffffffffffffffffffffffffffffffffffffff168273ffffffffffffffffffffffffffffffffffffffff161415610eb1576040517f08c379a0000000000000000000000000000000000000000000000000000000008152600401610ea890613e05565b60405180910390fd5b600360008373ffffffffffffffffffffffffffffffffffffffff1673ffffffffffffffffffffffffffffffffffffffff168152602001908152602001600020549050919050565b6060600d8383604051610f0c929190613c10565b90815260200160405180910390208054610f2590613966565b80601f0160208091040260200160405190810160405280929190818152602001828054610f5190613966565b8015610f9e5780601f10610f7357610100808354040283529160200191610f9e565b820191906000526020600020905b815481529060010190602001808311610f8157829003601f168201915b5050505050905092915050565b600960009054906101000a900473ffffffffffffffffffffffffffffffffffffffff1681565b6000600960009054906101000a900473ffffffffffffffffffffffffffffffffffffffff1673ffffffffffffffffffffffffffffffffffffffff163373ffffffffffffffffffffffffffffffffffffffff1614905090565b60606001805461103890613966565b80601f016020809104026020016040519081016040528092919081815260200182805461106490613966565b80156110b15780601f10611086576101008083540402835291602001916110b1565b820191906000526020600020905b81548152906001019060200180831161109457829003601f168201915b5050505050905090565b6000600261110c84848080601f016020809104026020016040519081016040528093929190818152602001838380828437600081840152601f19601f820116905080830192505050505050506120f4565b101580156111675750600a61116484848080601f016020809104026020016040519081016040528093929190818152602001838380828437600081840152601f19601f820116905080830192505050505050506120f4565b11155b905092915050565b61118161117a611cee565b83836122a9565b5050565b611196611190611cee565b83611daf565b6111d5576040517f08c379a00000000000000000000000000000000000000000000000000000000081526004016111cc90613bc0565b60405180910390fd5b6111e184848484612416565b50505050565b6000600c83836040516111fb929190613c10565b908152602001604051809103902060009054906101000a900473ffffffffffffffffffffffffffffffffffffffff16905092915050565b606061123d82611c82565b61127c576040517f08c379a000000000000000000000000000000000000000000000000000000000815260040161127390613e97565b60405180910390fd5b600060066000848152602001908152602001600020805461129c90613966565b80601f01602080910402602001604051908101604052809291908181526020018280546112c890613966565b80156113155780601f106112ea57610100808354040283529160200191611315565b820191906000526020600020905b8154815290600101906020018083116112f857829003601f168201915b505050505090506000611326612472565b905060008151141561133c57819250505061137f565b600082511115611371578082604051602001611359929190613ee8565b6040516020818303038152906040529250505061137f565b61137a84612489565b925050505b919050565b600d8180516020810182018051848252602083016020850120818352809550505050505060009150905080546113b990613966565b80601f01602080910402602001604051908101604052809291908181526020018280546113e590613966565b80156114325780601f1061140757610100808354040283529160200191611432565b820191906000526020600020905b81548152906001019060200180831161141557829003601f168201915b505050505081565b6000600560008473ffffffffffffffffffffffffffffffffffffffff1673ffffffffffffffffffffffffffffffffffffffff16815260200190815260200160002060008373ffffffffffffffffffffffffffffffffffffffff1673ffffffffffffffffffffffffffffffffffffffff16815260200190815260200160002060009054906101000a900460ff16905092915050565b600073ffffffffffffffffffffffffffffffffffffffff16600c83836040516114f8929190613c10565b908152602001604051809103902060009054906101000a900473ffffffffffffffffffffffffffffffffffffffff1673ffffffffffffffffffffffffffffffffffffffff1614611574576040517f3a81d6fc00000000000000000000000000000000000000000000000000000000815260040160405180910390fd5b61157e82826110bb565b6115c15781816040517f7f19f48d0000000000000000000000000000000000000000000000000000000081526004016115b8929190613f39565b60405180910390fd5b60006115cd8383611ad9565b905080341015611612576040517f08c379a000000000000000000000000000000000000000000000000000000000815260040161160990613fa9565b60405180910390fd5b60008383600860405160200161162a939291906140a9565b60405160208183030381529060405290506000600a82600b604051602001611654939291906140da565b604051602081830303815290604052905060006116716007612530565b905060006116c287878080601f016020809104026020016040519081016040528093929190818152602001838380828437600081840152601f19601f820116905080830192505050505050506120f4565b905060006116cf8261253e565b90506117386040518060600160405280602f8152602001614bc3602f913989898080601f016020809104026020016040519081016040528093929190818152602001838380828437600081840152601f19601f820116905080830192505050505050508561269f565b600061176e866117478761273e565b8460405160200161175a93929190614287565b60405160208183030381529060405261273e565b90506000816040516020016117839190614330565b60405160208183030381529060405290506117d26040518060400160405280601881526020017f0a2d2d2d2d2d2d2d2d2d2d2d2d2d2d2d2d2d2d2d2d2d2d2d00000000000000008152506128d6565b6118116040518060400160405280600e81526020017f46696e616c20746f6b656e55524900000000000000000000000000000000000081525082611b7c565b61184f6040518060400160405280601881526020017f0a2d2d2d2d2d2d2d2d2d2d2d2d2d2d2d2d2d2d2d2d2d2d2d00000000000000008152506128d6565b611859338661296f565b611863858261298d565b33600c8b8b604051611876929190613c10565b908152602001604051809103902060006101000a81548173ffffffffffffffffffffffffffffffffffffffff021916908373ffffffffffffffffffffffffffffffffffffffff1602179055508989600e600088815260200190815260200160002091906118e4929190612ec9565b506118ef6007612a01565b50505050505050505050565b606061193b6040518060400160405280601f81526020017f47657474696e6720616c6c206e616d65732066726f6d20636f6e7472616374008152506128d6565b60006119476007612530565b67ffffffffffffffff8111156119605761195f613304565b5b60405190808252806020026020018201604052801561199357816020015b606081526020019060019003908161197e5790505b50905060005b6119a36007612530565b811015611ad157600e600082815260200190815260200160002080546119c890613966565b80601f01602080910402602001604051908101604052809291908181526020018280546119f490613966565b8015611a415780601f10611a1657610100808354040283529160200191611a41565b820191906000526020600020905b815481529060010190602001808311611a2457829003601f168201915b5050505050828281518110611a5957611a58614352565b5b6020026020010181905250611abe6040518060400160405280601781526020017f4e616d6520666f7220746f6b656e20256420697320257300000000000000000081525082848481518110611ab157611ab0614352565b5b6020026020010151612a17565b8080611ac9906143b0565b915050611999565b508091505090565b600080611b2984848080601f016020809104026020016040519081016040528093929190818152602001838380828437600081840152601f19601f820116905080830192505050505050506120f4565b905060008111611b3857600080fd5b6003811415611b515766b1a2bc2ec50000915050611b76565b6004811415611b6a57666a94d74f430000915050611b76565b662386f26fc100009150505b92915050565b611c148282604051602401611b929291906143f9565b6040516020818303038152906040527f4b5c4277000000000000000000000000000000000000000000000000000000007bffffffffffffffffffffffffffffffffffffffffffffffffffffffff19166020820180517bffffffffffffffffffffffffffffffffffffffffffffffffffffffff8381831617835250505050612ab6565b5050565b60007f01ffc9a7000000000000000000000000000000000000000000000000000000007bffffffffffffffffffffffffffffffffffffffffffffffffffffffff1916827bffffffffffffffffffffffffffffffffffffffffffffffffffffffff1916149050919050565b60008073ffffffffffffffffffffffffffffffffffffffff166002600084815260200190815260200160002060009054906101000a900473ffffffffffffffffffffffffffffffffffffffff1673ffffffffffffffffffffffffffffffffffffffff1614159050919050565b600033905090565b816004600083815260200190815260200160002060006101000a81548173ffffffffffffffffffffffffffffffffffffffff021916908373ffffffffffffffffffffffffffffffffffffffff160217905550808273ffffffffffffffffffffffffffffffffffffffff16611d6983610cee565b73ffffffffffffffffffffffffffffffffffffffff167f8c5be1e5ebec7d5bd14f71427d1e84f3dd0314c0f7b2291e5b200ac8c7c3b92560405160405180910390a45050565b6000611dba82611c82565b611df9576040517f08c379a0000000000000000000000000000000000000000000000000000000008152600401611df0906144a2565b60405180910390fd5b6000611e0483610cee565b90508073ffffffffffffffffffffffffffffffffffffffff168473ffffffffffffffffffffffffffffffffffffffff161480611e7357508373ffffffffffffffffffffffffffffffffffffffff16611e5b84610859565b73ffffffffffffffffffffffffffffffffffffffff16145b80611e845750611e83818561143a565b5b91505092915050565b8273ffffffffffffffffffffffffffffffffffffffff16611ead82610cee565b73ffffffffffffffffffffffffffffffffffffffff1614611f03576040517f08c379a0000000000000000000000000000000000000000000000000000000008152600401611efa90614534565b60405180910390fd5b600073ffffffffffffffffffffffffffffffffffffffff168273ffffffffffffffffffffffffffffffffffffffff161415611f73576040517f08c379a0000000000000000000000000000000000000000000000000000000008152600401611f6a906145c6565b60405180910390fd5b611f7e838383612adf565b611f89600082611cf6565b6001600360008573ffffffffffffffffffffffffffffffffffffffff1673ffffffffffffffffffffffffffffffffffffffff1681526020019081526020016000206000828254611fd991906145e6565b925050819055506001600360008473ffffffffffffffffffffffffffffffffffffffff1673ffffffffffffffffffffffffffffffffffffffff1681526020019081526020016000206000828254612030919061461a565b92505081905550816002600083815260200190815260200160002060006101000a81548173ffffffffffffffffffffffffffffffffffffffff021916908373ffffffffffffffffffffffffffffffffffffffff160217905550808273ffffffffffffffffffffffffffffffffffffffff168473ffffffffffffffffffffffffffffffffffffffff167fddf252ad1be2c89b69c2b068fc378daa952ba7f163c4a11628f55a4df523b3ef60405160405180910390a46120ef838383612ae4565b505050565b60008060008084519050600092505b8082101561229e5760008583815181106121205761211f614352565b5b602001015160f81c60f81b9050608060f81b817effffffffffffffffffffffffffffffffffffffffffffffffffffffffffffff1916101561216f57600183612168919061461a565b925061228a565b60e060f81b817effffffffffffffffffffffffffffffffffffffffffffffffffffffffffffff191610156121b1576002836121aa919061461a565b9250612289565b60f060f81b817effffffffffffffffffffffffffffffffffffffffffffffffffffffffffffff191610156121f3576003836121ec919061461a565b9250612288565b60f8801b817effffffffffffffffffffffffffffffffffffffffffffffffffffffffffffff191610156122345760048361222d919061461a565b9250612287565b60fc60f81b817effffffffffffffffffffffffffffffffffffffffffffffffffffffffffffff191610156122765760058361226f919061461a565b9250612286565b600683612283919061461a565b92505b5b5b5b5b508280612296906143b0565b935050612103565b829350505050919050565b8173ffffffffffffffffffffffffffffffffffffffff168373ffffffffffffffffffffffffffffffffffffffff161415612318576040517f08c379a000000000000000000000000000000000000000000000000000000000815260040161230f906146bc565b60405180910390fd5b80600560008573ffffffffffffffffffffffffffffffffffffffff1673ffffffffffffffffffffffffffffffffffffffff16815260200190815260200160002060008473ffffffffffffffffffffffffffffffffffffffff1673ffffffffffffffffffffffffffffffffffffffff16815260200190815260200160002060006101000a81548160ff0219169083151502179055508173ffffffffffffffffffffffffffffffffffffffff168373ffffffffffffffffffffffffffffffffffffffff167f17307eab39ab6107e8899845ad3d59bd9653f200f220920489ca2b5937696c318360405161240991906130a6565b60405180910390a3505050565b612421848484611e8d565b61242d84848484612ae9565b61246c576040517f08c379a00000000000000000000000000000000000000000000000000000000081526004016124639061474e565b60405180910390fd5b50505050565b606060405180602001604052806000815250905090565b606061249482611c82565b6124d3576040517f08c379a00000000000000000000000000000000000000000000000000000000081526004016124ca906147e0565b60405180910390fd5b60006124dd612472565b905060008151116124fd5760405180602001604052806000815250612528565b806125078461253e565b604051602001612518929190613ee8565b6040516020818303038152906040525b915050919050565b600081600001549050919050565b60606000821415612586576040518060400160405280600181526020017f3000000000000000000000000000000000000000000000000000000000000000815250905061269a565b600082905060005b600082146125b85780806125a1906143b0565b915050600a826125b1919061482f565b915061258e565b60008167ffffffffffffffff8111156125d4576125d3613304565b5b6040519080825280601f01601f1916602001820160405280156126065781602001600182028036833780820191505090505b5090505b600085146126935760018261261f91906145e6565b9150600a8561262e9190614860565b603061263a919061461a565b60f81b8183815181106126505761264f614352565b5b60200101907effffffffffffffffffffffffffffffffffffffffffffffffffffffffffffff1916908160001a905350600a8561268c919061482f565b945061260a565b8093505050505b919050565b6127398383836040516024016126b793929190614891565b6040516020818303038152906040527ff362ca59000000000000000000000000000000000000000000000000000000007bffffffffffffffffffffffffffffffffffffffffffffffffffffffff19166020820180517bffffffffffffffffffffffffffffffffffffffffffffffffffffffff8381831617835250505050612ab6565b505050565b6060600082519050600081141561276757604051806020016040528060008152509150506128d1565b60006003600283612778919061461a565b612782919061482f565b600461278e91906148d6565b9050600060208261279f919061461a565b67ffffffffffffffff8111156127b8576127b7613304565b5b6040519080825280601f01601f1916602001820160405280156127ea5781602001600182028036833780820191505090505b5090506000604051806060016040528060408152602001614bf2604091399050600181016020830160005b8681101561288e5760038101905062ffffff818a015116603f8160121c168401518060081b905060ff603f83600c1c1686015116810190508060081b905060ff603f8360061c1686015116810190508060081b905060ff603f831686015116810190508060e01b90508084526004840193505050612815565b5060038606600181146128a857600281146128b8576128c3565b613d3d60f01b60028303526128c3565b603d60f81b60018303525b508484525050819450505050505b919050565b61296c816040516024016128ea919061315a565b6040516020818303038152906040527f41304fac000000000000000000000000000000000000000000000000000000007bffffffffffffffffffffffffffffffffffffffffffffffffffffffff19166020820180517bffffffffffffffffffffffffffffffffffffffffffffffffffffffff8381831617835250505050612ab6565b50565b612989828260405180602001604052806000815250612c71565b5050565b61299682611c82565b6129d5576040517f08c379a00000000000000000000000000000000000000000000000000000000081526004016129cc906149a2565b60405180910390fd5b806006600084815260200190815260200160002090805190602001906129fc929190612f4f565b505050565b6001816000016000828254019250508190555050565b612ab1838383604051602401612a2f939291906149c2565b6040516020818303038152906040527fa3f5c739000000000000000000000000000000000000000000000000000000007bffffffffffffffffffffffffffffffffffffffffffffffffffffffff19166020820180517bffffffffffffffffffffffffffffffffffffffffffffffffffffffff8381831617835250505050612ab6565b505050565b60008151905060006a636f6e736f6c652e6c6f679050602083016000808483855afa5050505050565b505050565b505050565b6000612b0a8473ffffffffffffffffffffffffffffffffffffffff16612ccc565b15612c64578373ffffffffffffffffffffffffffffffffffffffff1663150b7a02612b33611cee565b8786866040518563ffffffff1660e01b8152600401612b559493929190614a5c565b6020604051808303816000875af1925050508015612b9157506040513d601f19601f82011682018060405250810190612b8e9190614abd565b60015b612c14573d8060008114612bc1576040519150601f19603f3d011682016040523d82523d6000602084013e612bc6565b606091505b50600081511415612c0c576040517f08c379a0000000000000000000000000000000000000000000000000000000008152600401612c039061474e565b60405180910390fd5b805181602001fd5b63150b7a0260e01b7bffffffffffffffffffffffffffffffffffffffffffffffffffffffff1916817bffffffffffffffffffffffffffffffffffffffffffffffffffffffff191614915050612c69565b600190505b949350505050565b612c7b8383612cef565b612c886000848484612ae9565b612cc7576040517f08c379a0000000000000000000000000000000000000000000000000000000008152600401612cbe9061474e565b60405180910390fd5b505050565b6000808273ffffffffffffffffffffffffffffffffffffffff163b119050919050565b600073ffffffffffffffffffffffffffffffffffffffff168273ffffffffffffffffffffffffffffffffffffffff161415612d5f576040517f08c379a0000000000000000000000000000000000000000000000000000000008152600401612d5690614b36565b60405180910390fd5b612d6881611c82565b15612da8576040517f08c379a0000000000000000000000000000000000000000000000000000000008152600401612d9f90614ba2565b60405180910390fd5b612db460008383612adf565b6001600360008473ffffffffffffffffffffffffffffffffffffffff1673ffffffffffffffffffffffffffffffffffffffff1681526020019081526020016000206000828254612e04919061461a565b92505081905550816002600083815260200190815260200160002060006101000a81548173ffffffffffffffffffffffffffffffffffffffff021916908373ffffffffffffffffffffffffffffffffffffffff160217905550808273ffffffffffffffffffffffffffffffffffffffff16600073ffffffffffffffffffffffffffffffffffffffff167fddf252ad1be2c89b69c2b068fc378daa952ba7f163c4a11628f55a4df523b3ef60405160405180910390a4612ec560008383612ae4565b5050565b828054612ed590613966565b90600052602060002090601f016020900481019282612ef75760008555612f3e565b82601f10612f1057803560ff1916838001178555612f3e565b82800160010185558215612f3e579182015b82811115612f3d578235825591602001919060010190612f22565b5b509050612f4b9190612fd5565b5090565b828054612f5b90613966565b90600052602060002090601f016020900481019282612f7d5760008555612fc4565b82601f10612f9657805160ff1916838001178555612fc4565b82800160010185558215612fc4579182015b82811115612fc3578251825591602001919060010190612fa8565b5b509050612fd19190612fd5565b5090565b5b80821115612fee576000816000905550600101612fd6565b5090565b6000604051905090565b600080fd5b600080fd5b60007fffffffff0000000000000000000000000000000000000000000000000000000082169050919050565b61303b81613006565b811461304657600080fd5b50565b60008135905061305881613032565b92915050565b60006020828403121561307457613073612ffc565b5b600061308284828501613049565b91505092915050565b60008115159050919050565b6130a08161308b565b82525050565b60006020820190506130bb6000830184613097565b92915050565b600081519050919050565b600082825260208201905092915050565b60005b838110156130fb5780820151818401526020810190506130e0565b8381111561310a576000848401525b50505050565b6000601f19601f8301169050919050565b600061312c826130c1565b61313681856130cc565b93506131468185602086016130dd565b61314f81613110565b840191505092915050565b600060208201905081810360008301526131748184613121565b905092915050565b6000819050919050565b61318f8161317c565b811461319a57600080fd5b50565b6000813590506131ac81613186565b92915050565b6000602082840312156131c8576131c7612ffc565b5b60006131d68482850161319d565b91505092915050565b600073ffffffffffffffffffffffffffffffffffffffff82169050919050565b600061320a826131df565b9050919050565b61321a816131ff565b82525050565b60006020820190506132356000830184613211565b92915050565b613244816131ff565b811461324f57600080fd5b50565b6000813590506132618161323b565b92915050565b6000806040838503121561327e5761327d612ffc565b5b600061328c85828601613252565b925050602061329d8582860161319d565b9150509250929050565b6000806000606084860312156132c0576132bf612ffc565b5b60006132ce86828701613252565b93505060206132df86828701613252565b92505060406132f08682870161319d565b9150509250925092565b600080fd5b600080fd5b7f4e487b7100000000000000000000000000000000000000000000000000000000600052604160045260246000fd5b61333c82613110565b810181811067ffffffffffffffff8211171561335b5761335a613304565b5b80604052505050565b600061336e612ff2565b905061337a8282613333565b919050565b600067ffffffffffffffff82111561339a57613399613304565b5b6133a382613110565b9050602081019050919050565b82818337600083830152505050565b60006133d26133cd8461337f565b613364565b9050828152602081018484840111156133ee576133ed6132ff565b5b6133f98482856133b0565b509392505050565b600082601f830112613416576134156132fa565b5b81356134268482602086016133bf565b91505092915050565b60006020828403121561344557613444612ffc565b5b600082013567ffffffffffffffff81111561346357613462613001565b5b61346f84828501613401565b91505092915050565b600080fd5b600080fd5b60008083601f840112613498576134976132fa565b5b8235905067ffffffffffffffff8111156134b5576134b4613478565b5b6020830191508360018202830111156134d1576134d061347d565b5b9250929050565b600080600080604085870312156134f2576134f1612ffc565b5b600085013567ffffffffffffffff8111156135105761350f613001565b5b61351c87828801613482565b9450945050602085013567ffffffffffffffff81111561353f5761353e613001565b5b61354b87828801613482565b925092505092959194509250565b60006020828403121561356f5761356e612ffc565b5b600061357d84828501613252565b91505092915050565b61358f8161317c565b82525050565b60006020820190506135aa6000830184613586565b92915050565b600080602083850312156135c7576135c6612ffc565b5b600083013567ffffffffffffffff8111156135e5576135e4613001565b5b6135f185828601613482565b92509250509250929050565b6000613608826131df565b9050919050565b613618816135fd565b82525050565b6000602082019050613633600083018461360f565b92915050565b6136428161308b565b811461364d57600080fd5b50565b60008135905061365f81613639565b92915050565b6000806040838503121561367c5761367b612ffc565b5b600061368a85828601613252565b925050602061369b85828601613650565b9150509250929050565b600067ffffffffffffffff8211156136c0576136bf613304565b5b6136c982613110565b9050602081019050919050565b60006136e96136e4846136a5565b613364565b905082815260208101848484011115613705576137046132ff565b5b6137108482856133b0565b509392505050565b600082601f83011261372d5761372c6132fa565b5b813561373d8482602086016136d6565b91505092915050565b600080600080608085870312156137605761375f612ffc565b5b600061376e87828801613252565b945050602061377f87828801613252565b93505060406137908782880161319d565b925050606085013567ffffffffffffffff8111156137b1576137b0613001565b5b6137bd87828801613718565b91505092959194509250565b600080604083850312156137e0576137df612ffc565b5b60006137ee85828601613252565b92505060206137ff85828601613252565b9150509250929050565b600081519050919050565b600082825260208201905092915050565b6000819050602082019050919050565b600082825260208201905092915050565b6000613851826130c1565b61385b8185613835565b935061386b8185602086016130dd565b61387481613110565b840191505092915050565b600061388b8383613846565b905092915050565b6000602082019050919050565b60006138ab82613809565b6138b58185613814565b9350836020820285016138c785613825565b8060005b8581101561390357848403895281516138e4858261387f565b94506138ef83613893565b925060208a019950506001810190506138cb565b50829750879550505050505092915050565b6000602082019050818103600083015261392f81846138a0565b905092915050565b7f4e487b7100000000000000000000000000000000000000000000000000000000600052602260045260246000fd5b6000600282049050600182168061397e57607f821691505b6020821081141561399257613991613937565b5b50919050565b7f4552433732313a20617070726f76656420717565727920666f72206e6f6e657860008201527f697374656e7420746f6b656e0000000000000000000000000000000000000000602082015250565b60006139f4602c836130cc565b91506139ff82613998565b604082019050919050565b60006020820190508181036000830152613a23816139e7565b9050919050565b7f4552433732313a20617070726f76616c20746f2063757272656e74206f776e6560008201527f7200000000000000000000000000000000000000000000000000000000000000602082015250565b6000613a866021836130cc565b9150613a9182613a2a565b604082019050919050565b60006020820190508181036000830152613ab581613a79565b9050919050565b7f4552433732313a20617070726f76652063616c6c6572206973206e6f74206f7760008201527f6e6572206e6f7220617070726f76656420666f7220616c6c0000000000000000602082015250565b6000613b186038836130cc565b9150613b2382613abc565b604082019050919050565b60006020820190508181036000830152613b4781613b0b565b9050919050565b7f4552433732313a207472616e736665722063616c6c6572206973206e6f74206f60008201527f776e6572206e6f7220617070726f766564000000000000000000000000000000602082015250565b6000613baa6031836130cc565b9150613bb582613b4e565b604082019050919050565b60006020820190508181036000830152613bd981613b9d565b9050919050565b600081905092915050565b6000613bf78385613be0565b9350613c048385846133b0565b82840190509392505050565b6000613c1d828486613beb565b91508190509392505050565b600081905092915050565b50565b6000613c44600083613c29565b9150613c4f82613c34565b600082019050919050565b6000613c6582613c37565b9150819050919050565b7f4661696c656420746f207769746864726177204d415449432c20796f7520617260008201527f65206e6f7420746865206f776e6572206f662074686520636f6e747261637400602082015250565b6000613ccb603f836130cc565b9150613cd682613c6f565b604082019050919050565b60006020820190508181036000830152613cfa81613cbe565b9050919050565b7f4552433732313a206f776e657220717565727920666f72206e6f6e657869737460008201527f656e7420746f6b656e0000000000000000000000000000000000000000000000602082015250565b6000613d5d6029836130cc565b9150613d6882613d01565b604082019050919050565b60006020820190508181036000830152613d8c81613d50565b9050919050565b7f4552433732313a2062616c616e636520717565727920666f7220746865207a6560008201527f726f206164647265737300000000000000000000000000000000000000000000602082015250565b6000613def602a836130cc565b9150613dfa82613d93565b604082019050919050565b60006020820190508181036000830152613e1e81613de2565b9050919050565b7f45524337323155524953746f726167653a2055524920717565727920666f722060008201527f6e6f6e6578697374656e7420746f6b656e000000000000000000000000000000602082015250565b6000613e816031836130cc565b9150613e8c82613e25565b604082019050919050565b60006020820190508181036000830152613eb081613e74565b9050919050565b6000613ec2826130c1565b613ecc8185613be0565b9350613edc8185602086016130dd565b80840191505092915050565b6000613ef48285613eb7565b9150613f008284613eb7565b91508190509392505050565b6000613f1883856130cc565b9350613f258385846133b0565b613f2e83613110565b840190509392505050565b60006020820190508181036000830152613f54818486613f0c565b90509392505050565b7f4e6f7420656e6f756768204d4154494320706169640000000000000000000000600082015250565b6000613f936015836130cc565b9150613f9e82613f5d565b602082019050919050565b60006020820190508181036000830152613fc281613f86565b9050919050565b7f2e00000000000000000000000000000000000000000000000000000000000000600082015250565b6000613fff600183613be0565b915061400a82613fc9565b600182019050919050565b60008190508160005260206000209050919050565b6000815461403781613966565b6140418186613be0565b9450600182166000811461405c576001811461406d576140a0565b60ff198316865281860193506140a0565b61407685614015565b60005b8381101561409857815481890152600182019150602081019050614079565b838801955050505b50505092915050565b60006140b6828587613beb565b91506140c182613ff2565b91506140cd828461402a565b9150819050949350505050565b60006140e6828661402a565b91506140f28285613eb7565b91506140fe828461402a565b9150819050949350505050565b7f7b226e616d65223a202200000000000000000000000000000000000000000000600082015250565b6000614141600a83613be0565b915061414c8261410b565b600a82019050919050565b7f222c20226465736372697074696f6e223a20224120646f6d61696e206f6e207460008201527f6865204e696e6a61206e616d652073657276696365222c2022696d616765223a60208201527f2022646174613a696d6167652f7376672b786d6c3b6261736536342c00000000604082015250565b60006141d9605c83613be0565b91506141e482614157565b605c82019050919050565b7f222c226c656e677468223a220000000000000000000000000000000000000000600082015250565b6000614225600c83613be0565b9150614230826141ef565b600c82019050919050565b7f227d000000000000000000000000000000000000000000000000000000000000600082015250565b6000614271600283613be0565b915061427c8261423b565b600282019050919050565b600061429282614134565b915061429e8286613eb7565b91506142a9826141cc565b91506142b58285613eb7565b91506142c082614218565b91506142cc8284613eb7565b91506142d782614264565b9150819050949350505050565b7f646174613a6170706c69636174696f6e2f6a736f6e3b6261736536342c000000600082015250565b600061431a601d83613be0565b9150614325826142e4565b601d82019050919050565b600061433b8261430d565b91506143478284613eb7565b915081905092915050565b7f4e487b7100000000000000000000000000000000000000000000000000000000600052603260045260246000fd5b7f4e487b7100000000000000000000000000000000000000000000000000000000600052601160045260246000fd5b60006143bb8261317c565b91507fffffffffffffffffffffffffffffffffffffffffffffffffffffffffffffffff8214156143ee576143ed614381565b5b600182019050919050565b600060408201905081810360008301526144138185613121565b905081810360208301526144278184613121565b90509392505050565b7f4552433732313a206f70657261746f7220717565727920666f72206e6f6e657860008201527f697374656e7420746f6b656e0000000000000000000000000000000000000000602082015250565b600061448c602c836130cc565b915061449782614430565b604082019050919050565b600060208201905081810360008301526144bb8161447f565b9050919050565b7f4552433732313a207472616e736665722066726f6d20696e636f72726563742060008201527f6f776e6572000000000000000000000000000000000000000000000000000000602082015250565b600061451e6025836130cc565b9150614529826144c2565b604082019050919050565b6000602082019050818103600083015261454d81614511565b9050919050565b7f4552433732313a207472616e7366657220746f20746865207a65726f2061646460008201527f7265737300000000000000000000000000000000000000000000000000000000602082015250565b60006145b06024836130cc565b91506145bb82614554565b604082019050919050565b600060208201905081810360008301526145df816145a3565b9050919050565b60006145f18261317c565b91506145fc8361317c565b92508282101561460f5761460e614381565b5b828203905092915050565b60006146258261317c565b91506146308361317c565b9250827fffffffffffffffffffffffffffffffffffffffffffffffffffffffffffffffff0382111561466557614664614381565b5b828201905092915050565b7f4552433732313a20617070726f766520746f2063616c6c657200000000000000600082015250565b60006146a66019836130cc565b91506146b182614670565b602082019050919050565b600060208201905081810360008301526146d581614699565b9050919050565b7f4552433732313a207472616e7366657220746f206e6f6e20455243373231526560008201527f63656976657220696d706c656d656e7465720000000000000000000000000000602082015250565b60006147386032836130cc565b9150614743826146dc565b604082019050919050565b600060208201905081810360008301526147678161472b565b9050919050565b7f4552433732314d657461646174613a2055524920717565727920666f72206e6f60008201527f6e6578697374656e7420746f6b656e0000000000000000000000000000000000602082015250565b60006147ca602f836130cc565b91506147d58261476e565b604082019050919050565b600060208201905081810360008301526147f9816147bd565b9050919050565b7f4e487b7100000000000000000000000000000000000000000000000000000000600052601260045260246000fd5b600061483a8261317c565b91506148458361317c565b92508261485557614854614800565b5b828204905092915050565b600061486b8261317c565b91506148768361317c565b92508261488657614885614800565b5b828206905092915050565b600060608201905081810360008301526148ab8186613121565b905081810360208301526148bf8185613121565b90506148ce6040830184613586565b949350505050565b60006148e18261317c565b91506148ec8361317c565b9250817fffffffffffffffffffffffffffffffffffffffffffffffffffffffffffffffff048311821515161561492557614924614381565b5b828202905092915050565b7f45524337323155524953746f726167653a2055524920736574206f66206e6f6e60008201527f6578697374656e7420746f6b656e000000000000000000000000000000000000602082015250565b600061498c602e836130cc565b915061499782614930565b604082019050919050565b600060208201905081810360008301526149bb8161497f565b9050919050565b600060608201905081810360008301526149dc8186613121565b90506149eb6020830185613586565b81810360408301526149fd8184613121565b9050949350505050565b600081519050919050565b600082825260208201905092915050565b6000614a2e82614a07565b614a388185614a12565b9350614a488185602086016130dd565b614a5181613110565b840191505092915050565b6000608082019050614a716000830187613211565b614a7e6020830186613211565b614a8b6040830185613586565b8181036060830152614a9d8184614a23565b905095945050505050565b600081519050614ab781613032565b92915050565b600060208284031215614ad357614ad2612ffc565b5b6000614ae184828501614aa8565b91505092915050565b7f4552433732313a206d696e7420746f20746865207a65726f2061646472657373600082015250565b6000614b206020836130cc565b9150614b2b82614aea565b602082019050919050565b60006020820190508181036000830152614b4f81614b13565b9050919050565b7f4552433732313a20746f6b656e20616c7265616479206d696e74656400000000600082015250565b6000614b8c601c836130cc565b9150614b9782614b56565b602082019050919050565b60006020820190508181036000830152614bbb81614b7f565b905091905056fe5265676973746572696e67202573206f6e2074686520636f6e7472616374207769746820746f6b656e4944202564214142434445464748494a4b4c4d4e4f505152535455565758595a6162636465666768696a6b6c6d6e6f707172737475767778797a303132333435363738392b2fa2646970667358221220bceac7c0687a402d693c0092b40313c853e30f6cdc94be3a85f5df46761d686964736f6c634300080a00333c73766720786d6c6e733d22687474703a2f2f7777772e77332e6f72672f323030302f737667222077696474683d2232373022206865696768743d22323730222066696c6c3d226e6f6e65223e3c706174682066696c6c3d2275726c282342292220643d224d302030683237307632373048307a222f3e3c646566733e3c66696c7465722069643d22412220636f6c6f722d696e746572706f6c6174696f6e2d66696c746572733d2273524742222066696c746572556e6974733d227573657253706163654f6e55736522206865696768743d22323730222077696474683d22323730223e3c666544726f70536861646f772064783d2230222064793d22312220737464446576696174696f6e3d22322220666c6f6f642d6f7061636974793d222e323235222077696474683d223230302522206865696768743d2232303025222f3e3c2f66696c7465723e3c2f646566733e3c7061746820643d224d37322e3836332034322e393439632d2e3636382d2e3338372d312e3432362d2e35392d322e3139372d2e3539732d312e3532392e3230342d322e3139372e35396c2d31302e30383120362e3033322d362e383520332e3933342d31302e30383120362e303332632d2e3636382e3338372d312e3432362e35392d322e3139372e3539732d312e3532392d2e3230342d322e3139372d2e35396c2d382e3031332d342e37323161342e353220342e35322030203020312d312e3538392d312e363136632d2e3338342d2e3636352d2e3539342d312e3431382d2e3630382d322e313837762d392e3331632d2e3031332d2e3737352e3138352d312e3533382e3537322d322e32303861342e323520342e323520302030203120312e3632352d312e3539356c372e3838342d342e3539632e3636382d2e33383720312e3432362d2e353920322e3139372d2e353973312e3532392e32303420322e3139372e35396c372e38383420342e353961342e353220342e353220302030203120312e35383920312e363136632e3338342e3636352e35393420312e3431382e36303820322e31383776362e3033326c362e38352d342e303635762d362e303332632e3031332d2e3737352d2e3138352d312e3533382d2e3537322d322e32303861342e323520342e32352030203020302d312e3632352d312e3539354c34312e3435362032342e3539632d2e3636382d2e3338372d312e3432362d2e35392d322e3139372d2e3539732d312e3532392e3230342d322e3139372e35396c2d31342e38363420382e36353561342e323520342e32352030203020302d312e36323520312e353935632d2e3338372e36372d2e35383520312e3433342d2e35373220322e3230387631372e343431632d2e3031332e3737352e31383520312e3533382e35373220322e32303861342e323520342e323520302030203020312e36323520312e3539356c31342e38363420382e363535632e3636382e33383720312e3432362e353920322e3139372e353973312e3532392d2e32303420322e3139372d2e35396c31302e3038312d352e39303120362e38352d342e3036352031302e3038312d352e393031632e3636382d2e33383720312e3432362d2e353920322e3139372d2e353973312e3532392e32303420322e3139372e35396c372e38383420342e353961342e353220342e353220302030203120312e35383920312e363136632e3338342e3636352e35393420312e3431382e36303820322e31383776392e333131632e3031332e3737352d2e31383520312e3533382d2e35373220322e32303861342e323520342e32352030203020312d312e36323520312e3539356c2d372e38383420342e373231632d2e3636382e3338372d312e3432362e35392d322e3139372e3539732d312e3532392d2e3230342d322e3139372d2e35396c2d372e3838342d342e353961342e353220342e35322030203020312d312e3538392d312e363136632d2e3338352d2e3636352d2e3539342d312e3431382d2e3630382d322e313837762d362e3033326c2d362e383520342e30363576362e303332632d2e3031332e3737352e31383520312e3533382e35373220322e32303861342e323520342e323520302030203020312e36323520312e3539356c31342e38363420382e363535632e3636382e33383720312e3432362e353920322e3139372e353973312e3532392d2e32303420322e3139372d2e35396c31342e3836342d382e363535632e3635372d2e33393420312e3230342d2e393520312e3538392d312e363136732e3539342d312e3431382e3630392d322e3138375635352e353338632e3031332d2e3737352d2e3138352d312e3533382d2e3537322d322e32303861342e323520342e32352030203020302d312e3632352d312e3539356c2d31342e3939332d382e3738367a222066696c6c3d2223666666222f3e3c646566733e3c6c696e6561724772616469656e742069643d2242222078313d2230222079313d2230222078323d22323730222079323d2232373022206772616469656e74556e6974733d227573657253706163654f6e557365223e3c73746f702073746f702d636f6c6f723d2223636235656565222f3e3c73746f70206f66667365743d2231222073746f702d636f6c6f723d2223306364376534222073746f702d6f7061636974793d222e3939222f3e3c2f6c696e6561724772616469656e743e3c2f646566733e3c7465787420783d2233322e352220793d223233312220666f6e742d73697a653d223237222066696c6c3d2223666666222066696c7465723d2275726c282341292220666f6e742d66616d696c793d22506c7573204a616b617274612053616e732c44656a6156752053616e732c4e6f746f20436f6c6f7220456d6f6a692c4170706c6520436f6c6f7220456d6f6a692c73616e732d73657269662220666f6e742d7765696768743d22626f6c64223e",
  "linkReferences": {},
  "deployedLinkReferences": {}
}